S01E000050726F6A6563744A6F616368696D487565536C6176652E7372656357
S11300000C9434000C9446000C9446000C94460066
S11300100C9446000C9446000C9446000C94460044
S11300200C9446000C9446000C9446000C94460034
S11300300C9446000C9446000C9446000C94460024
S11300400C9446000C9446000C9446000C94460014
S11300500C9446000C9446000C9446000C94460004
S11300600C9446000C94460011241FBECFEFD8E038
S1130070DEBFCDBF21E0A0E0B1E001C01D92A03001
S1130080B207E1F70E9448000C9475030C94000039
S1130090CF93DF93CDB7DEB7AA970FB6F894DEBF40
S11300A00FBECDBF0E94DA0188E890E0FC01118206
S11300B010828AE890E0FC011182108287E490E0CB
S11300C02FEFFC01208380E090E0AAE7B4E4898369
S11300D09A83AB83BC8320E030E04AE755E469812E
S11300E07A818B819C810E94E002DC01CB0189A38F
S11300F09AA3ABA3BCA320E030E040E85FE369A18E
S11301007AA18BA19CA10E945A0288232CF481E03D
S113011090E09EA38DA33FC020E03FEF4FE757E45C
S113012069A17AA18BA19CA10E94DB0218164CF54F
S113013020E030E040E251E469817A818B819C8146
S11301400E94E002DC01CB01BC01CD010E945F02F0
S1130150DC01CB019EA38DA30FC080E991E098A799
S11301608FA38FA198A50197F1F798A78FA38DA1CD
S11301709EA101979EA38DA38DA19EA1892B69F7B2
S113018014C069A17AA18BA19CA10E945F02DC0129
S1130190CB019EA38DA38DA19EA19AA789A789A512
S11301A09AA50197F1F79AA789A788E890E02FEF1D
S11301B030E0FC01318320838AE890E0FC01118265
S11301C0108287E490E0FC01108280E090E0AAE7CE
S11301D0B4E48D839E83AF83B88720E030E04AE7A0
S11301E055E46D817E818F8198850E94E002DC0157
S11301F0CB018F8B988FA98FBA8F20E030E040E835
S11302005FE36F89788D898D9A8D0E945A028823C5
S11302102CF481E090E09C8F8B8F3FC020E03FEF77
S11302204FE757E46F89788D898D9A8D0E94DB02A0
S113023018164CF520E030E040E251E46D817E81F7
S11302408F8198850E94E002DC01CB01BC01CD01C5
S11302500E945F02DC01CB019C8F8B8F0FC080E971
S113026091E09E8F8D8F8D8D9E8D0197F1F79E8FDE
S11302708D8F8B8D9C8D01979C8F8B8F8B8D9C8DFF
S1130280892B69F714C06F89788D898D9A8D0E94A6
S11302905F02DC01CB019C8F8B8F8B8D9C8D98A38F
S11302A08F8F8F8D98A10197F1F798A38F8F88E88E
S11302B090E0FC01118210828AE890E02FEF30E098
S11302C0FC013183208387E490E0FC01108280E00C
S11302D090E0AAE7B4E489879A87AB87BC8720E0DB
S11302E030E04AE755E469857A858B859C850E94D0
S11302F0E002DC01CB018D879E87AF87B88B20E0BD
S113030030E040E85FE36D857E858F8598890E94A3
S11303105A0288232CF481E090E09A8B898B3FC0A9
S113032020E03FEF4FE757E46D857E858F85988900
S11303300E94DB0218164CF520E030E040E251E464
S113034069857A858B859C850E94E002DC01CB015E
S1130350BC01CD010E945F02DC01CB019A8B898B29
S11303600FC080E991E09C8B8B8B8B899C890197D2
S1130370F1F79C8B8B8B89899A8901979A8B898B4E
S113038089899A89892B69F714C06D857E858F8543
S113039098890E945F02DC01CB019A8B898B898941
S11303A09A899E8B8D8B8D899E890197F1F79E8BFF
S11303B08D8B7ACECF93DF93CDB7DEB784E290E016
S11303C024E230E0F90120812660FC0120838AE2E6
S11303D090E02AE230E0F90120812064FC012083CE
S11303E00E94F8010E943F020000DF91CF9108951E
S11303F0CF93DF93CDB7DEB780E890E020E830E01C
S1130400F90120812160FC01208381E890E021E84A
S113041030E0F90120812860FC01208380E890E02D
S113042020E830E0F9012081206AFC01208381E882
S113043090E021E830E0F90120812360FC01208371
S113044084E490E024E430E0F90120812360FC019D
S1130450208384E490E024E430E0F90120812068E2
S1130460FC01208385E490E025E430E0F90120815B
S11304702360FC0120830000DF91CF910895CF9386
S1130480DF93CDB7DEB785EC90E0FC01108284ECFD
S113049090E027E6FC01208381EC90E028E1FC0158
S11304A0208382EC90E026E0FC0120830000DF91B1
S11304B0CF9108950E948E0208F481E008950E946D
S11304C0BA0288F09F5798F0B92F9927B751B0F026
S11304D0E1F0660F771F881F991F1AF0BA95C9F7C4
S11304E014C0B13091F00E94D402B1E008950C948C
S11304F0D402672F782F8827B85F39F0B93FCCF33F
S1130500869577956795B395D9F73EF49095809540
S1130510709561957F4F8F4F9F4F0895990F0008F5
S1130520550FAA0BE0E8FEEF16161706E807F907C1
S1130530C0F012161306E407F50798F0621B730B5C
S1130540840B950B39F40A2661F0232B242B252BDD
S113055021F408950A2609F4A140A6958FEF811D80
S1130560811D089557FD9058440F551F59F05F3F62
S113057071F04795880F97FB991F61F09F3F79F0C1
S113058087950895121613061406551FF2CF469543
S1130590F1DF08C0161617061806991FF1CF8695C5
S11305A07105610508940895E894BB2766277727A9
S11305B0CB0197F908950E948E0208F48FEF0895F5
S11305C00E94F3020C9464030E94560338F00E94C4
S11305D05D0320F0952311F00C944D030C94530308
S11305E011240C94D5020E94B20270F3959FC1F3BA
S11305F0950F50E0551F629FF001729FBB27F00DCD
S1130600B11D639FAA27F00DB11DAA1F649F662721
S1130610B00DA11D661F829F2227B00DA11D621F70
S1130620739FB00DA11D621F839FA00D611D221F2A
S1130630749F3327A00D611D231F849F600D211D0E
S1130640822F762F6A2F11249F5750409AF0F1F091
S113065088234AF0EE0FFF1FBB1F661F771F881FFA
S113066091505040A9F79E3F510580F00C944D03E2
S11306700C94D5025F3FE4F3983ED4F386957795C6
S11306806795B795F795E7959F5FC1F7FE2B880FA0
S1130690911D9695879597F9089597F99F6780E836
S11306A070E060E008959FEF80EC089500240A94C0
S11306B01616170618060906089500240A94121639
S11306C01306140605060895092E0394000C11F46C
S11306D0882352F0BB0F40F4BF2B11F460FF04C019
S11106E06F5F7F4F8F4F9F4F0895F894FFCFA9
S9030000FC
