S01E000050726F6A6563744A6F616368696D487565536C6176652E7372656357
S11300000C9434000C943E000C943E000C943E007E
S11300100C943E000C943E000C943E000C943E0064
S11300200C943E000C943E000C943E000C943E0054
S11300300C943E000C943E000C943E000C943E0044
S11300400C943E000C943E000C943E000C943E0034
S11300500C943E000C943E000C943E000C943E0024
S11300600C943E000C943E0011241FBECFEFD8E048
S1130070DEBFCDBF0E9440000C9450000C940000E1
S113008084B1806284B983B1806283B92FEF83ED38
S113009090E3215080409040E1F700C00000F3CF8E
S10700A0F894FFCFFE
S9030000FC
