S01E000050726F6A6563744A6F616368696D487565536C6176652E7372656357
S11300000C9434000C943E000C943E000C943E007E
S11300100C943E000C943E000C943E000C943E0064
S11300200C943E000C943E000C943E000C943E0054
S11300300C943E000C943E000C943E000C943E0044
S11300400C943E000C943E000C943E000C943E0034
S11300500C943E000C943E000C943E000C943E0024
S11300600C943E000C943E0011241FBECFEFD8E048
S1130070DEBFCDBF0E9446000C94A4000C94000087
S113008084B18E6084B90E94830008950E94400068
S1130090C8E8D0E08FE790E099838883AAE8B0E0CD
S11300A011969C938E93E3EBF0E080832FEF83ED26
S11300B090E3215080409040E1F700C000008FEFB2
S11300C090E09983888385E490E011969C938E93C5
S11300D010822FEF83ED90E3215080409040E1F7B0
S11300E000C000001982188211961C921E928FEF94
S11300F080832FEF83ED90E3215080409040E1F71F
S113010000C00000C5CFA0E8B0E08C9181608C9362
S1130110E1E8F0E08081886080838C91806A8C9330
S1130120808183608083A0EBB0E08C9181608C93AC
S1130130E1EBF0E08081886080838C9180688C930F
S10F01408081836080830895F894FFCFD1
S9030000FC
