S01E000050726F6A6563744A6F616368696D487565536C6176652E7372656357
S11300000C9434000C9446000C9446000C94460066
S11300100C9446000C9446000C9446000C94460044
S11300200C9446000C9446000C9446000C94460034
S11300300C9446000C9446000C9446000C94460024
S11300400C9446000C9446000C9446000C94460014
S11300500C9446000C9446000C9446000C94460004
S11300600C9446000C94460011241FBECFEFD8E038
S1130070DEBFCDBF21E0A0E0B1E001C01D92AC30F5
S1130080B207E1F70E9448000C948A010C94000026
S1130090CF93DF93CDB7DEB70E9469000E9487003B
S11300A088E890E020910901222F30E0FC0131839F
S11300B020838AE890E020910A01222F30E0FC019D
S11300C03183208387E490E020910B01FC0120839D
S11300D0E5CFCF93DF93CDB7DEB784E290E024E29F
S11300E030E0F90120812660FC0120838AE290E05F
S11300F02AE230E0F90120812064FC0120830E947F
S113010016010E945D010000DF91CF910895CF9305
S1130110DF931F92CDB7DEB70E947801898389816E
S1130120882F90E08335910509F005C00E94A00056
S11301300E94C10001C0F0CF0F90DF91CF910895CC
S11301400F931F93CF93DF931F92CDB7DEB719821E
S11301500EC08981082F10E00E947801282FC80161
S113016080509F4FFC01208389818F5F898389811F
S1130170893078F300000F90DF91CF911F910F9198
S11301800895CF93DF931F92CDB7DEB7198245C090
S11301908981482F50E08981282F30E0C901880FD8
S11301A0991F820F931F80509F4FFC018081882FDD
S11301B090E0C097982F84E6989F602D1124898140
S11301C0282F30E0C901880F991F820F931F0196D1
S11301D080509F4FFC018081882F90E0C097880F4A
S11301E0982F990F990F890F680F8981282F30E074
S11301F0C901880F991F820F931F029680509F4F49
S1130200FC018081860F20ED280FCA01875F9E4F75
S1130210FC01208389818F5F89838981833008F47D
S1130220B7CF00000F90DF91CF910895CF93DF9364
S1130230CDB7DEB780E890E020E830E0F901208116
S11302402160FC01208381E890E021E830E0F9019D
S113025020812860FC01208380E890E020E830E0E1
S1130260F9012081206AFC01208381E890E021E8E3
S113027030E0F90120812360FC01208384E490E0D4
S113028024E430E0F90120812360FC01208384E42C
S113029090E024E430E0F90120812068FC0120830F
S11302A085E490E025E430E0F90120812360FC013D
S11302B020830000DF91CF910895CF93DF93CDB7D2
S11302C0DEB785EC90E0FC01108284EC90E027E638
S11302D0FC01208381EC90E028E1FC01208382EC86
S11302E090E026E0FC0120830000DF91CF91089587
S11302F0CF93DF93CDB7DEB7000080EC90E0FC0134
S113030080818823D4F786EC90E0FC018081DF9122
S10B0310CF910895F894FFCF8A
S9030000FC
